{
  "_format": "hh-sol-artifact-1",
  "contractName": "BoxV2",
  "sourceName": "contracts/BoxV2.sol",
  "abi": [
    {
      "inputs": [
        {
          "internalType": "uint256",
          "name": "_val",
          "type": "uint256"
        }
      ],
      "name": "inc",
      "outputs": [],
      "stateMutability": "nonpayable",
      "type": "function"
    },
    {
      "inputs": [],
      "name": "val",
      "outputs": [
        {
          "internalType": "uint256",
          "name": "",
          "type": "uint256"
        }
      ],
      "stateMutability": "view",
      "type": "function"
    }
  ],
  "bytecode": "0x608060405234801561001057600080fd5b506101da806100206000396000f3fe608060405234801561001057600080fd5b50600436106100365760003560e01c80633c6bb4361461003b578063812600df14610059575b600080fd5b610043610075565b60405161005091906100e3565b60405180910390f35b610073600480360381019061006e91906100ab565b61007b565b005b60005481565b8060008082825461008c91906100fe565b9250508190555050565b6000813590506100a58161018d565b92915050565b6000602082840312156100bd57600080fd5b60006100cb84828501610096565b91505092915050565b6100dd81610154565b82525050565b60006020820190506100f860008301846100d4565b92915050565b600061010982610154565b915061011483610154565b9250827fffffffffffffffffffffffffffffffffffffffffffffffffffffffffffffffff038211156101495761014861015e565b5b828201905092915050565b6000819050919050565b7f4e487b7100000000000000000000000000000000000000000000000000000000600052601160045260246000fd5b61019681610154565b81146101a157600080fd5b5056fea26469706673582212206bd10d713f5512df52e12feb79295290307f6e237e6f4c264ab561cb0c31a6dc64736f6c63430008040033",
  "linkReferences": {},
  "deployedLinkReferences": {}
}